{
	"contracts/Fundme.sol": {
		"FundMe": {
			"abi": [
				{
					"inputs": [],
					"name": "fund",
					"outputs": [],
					"stateMutability": "payable",
					"type": "function"
				},
				{
					"inputs": [],
					"name": "minimumUsd",
					"outputs": [
						{
							"internalType": "uint256",
							"name": "",
							"type": "uint256"
						}
					],
					"stateMutability": "view",
					"type": "function"
				},
				{
					"inputs": [],
					"name": "withdraw",
					"outputs": [],
					"stateMutability": "nonpayable",
					"type": "function"
				}
			],
			"devdoc": {
				"kind": "dev",
				"methods": {},
				"version": 1
			},
			"evm": {
				"assembly": "    /* \"contracts/Fundme.sol\":63:408  contract FundMe{... */\n  mstore(0x40, 0x80)\n    /* \"contracts/Fundme.sol\":111:112  5 */\n  0x05\n    /* \"contracts/Fundme.sol\":83:112  uint256 public minimumUsd = 5 */\n  0x00\n  sstore\n    /* \"contracts/Fundme.sol\":63:408  contract FundMe{... */\n  callvalue\n  dup1\n  iszero\n  tag_1\n  jumpi\n  revert(0x00, 0x00)\ntag_1:\n  pop\n  dataSize(sub_0)\n  dup1\n  dataOffset(sub_0)\n  0x00\n  codecopy\n  0x00\n  return\nstop\n\nsub_0: assembly {\n        /* \"contracts/Fundme.sol\":63:408  contract FundMe{... */\n      mstore(0x40, 0x80)\n      jumpi(tag_1, lt(calldatasize, 0x04))\n      shr(0xe0, calldataload(0x00))\n      dup1\n      0x098de820\n      eq\n      tag_2\n      jumpi\n      dup1\n      0x3ccfd60b\n      eq\n      tag_3\n      jumpi\n      dup1\n      0xb60d4288\n      eq\n      tag_4\n      jumpi\n    tag_1:\n      revert(0x00, 0x00)\n        /* \"contracts/Fundme.sol\":83:112  uint256 public minimumUsd = 5 */\n    tag_2:\n      callvalue\n      dup1\n      iszero\n      tag_5\n      jumpi\n      revert(0x00, 0x00)\n    tag_5:\n      pop\n      tag_6\n      sload(0x00)\n      dup2\n      jump\n    tag_6:\n      mload(0x40)\n        /* \"#utility.yul\":160:185   */\n      swap1\n      dup2\n      mstore\n        /* \"#utility.yul\":148:150   */\n      0x20\n        /* \"#utility.yul\":133:151   */\n      add\n        /* \"contracts/Fundme.sol\":83:112  uint256 public minimumUsd = 5 */\n      mload(0x40)\n      dup1\n      swap2\n      sub\n      swap1\n      return\n        /* \"contracts/Fundme.sol\":371:405  function withdraw() public... */\n    tag_3:\n      callvalue\n      dup1\n      iszero\n      tag_10\n      jumpi\n      revert(0x00, 0x00)\n    tag_10:\n      pop\n    tag_11:\n      stop\n        /* \"contracts/Fundme.sol\":121:367  function fund() public payable {... */\n    tag_4:\n      tag_11\n      tag_14\n      jump\t// in\n        /* \"contracts/Fundme.sol\":371:405  function withdraw() public... */\n    tag_12:\n      jump\t// out\n        /* \"contracts/Fundme.sol\":121:367  function fund() public payable {... */\n    tag_14:\n        /* \"contracts/Fundme.sol\":322:332  minimumUsd */\n      sload(0x00)\n        /* \"contracts/Fundme.sol\":309:318  msg.value */\n      callvalue\n        /* \"contracts/Fundme.sol\":309:332  msg.value >= minimumUsd */\n      lt\n      iszero\n        /* \"contracts/Fundme.sol\":301:359  require(msg.value >= minimumUsd, \"didn't send enough ETH\") */\n      tag_12\n      jumpi\n      mload(0x40)\n      shl(0xe5, 0x461bcd)\n      dup2\n      mstore\n        /* \"#utility.yul\":398:400   */\n      0x20\n        /* \"contracts/Fundme.sol\":301:359  require(msg.value >= minimumUsd, \"didn't send enough ETH\") */\n      0x04\n      dup3\n      add\n        /* \"#utility.yul\":380:401   */\n      mstore\n        /* \"#utility.yul\":437:439   */\n      0x16\n        /* \"#utility.yul\":417:435   */\n      0x24\n      dup3\n      add\n        /* \"#utility.yul\":410:440   */\n      mstore\n      shl(0x53, 0x0c8d2c8dc4ee840e6cadcc840cadcdeeaced0408aa89)\n        /* \"#utility.yul\":456:474   */\n      0x44\n      dup3\n      add\n        /* \"#utility.yul\":449:501   */\n      mstore\n        /* \"#utility.yul\":518:536   */\n      0x64\n      add\n        /* \"contracts/Fundme.sol\":301:359  require(msg.value >= minimumUsd, \"didn't send enough ETH\") */\n      mload(0x40)\n      dup1\n      swap2\n      sub\n      swap1\n      revert\n\n    auxdata: 0xa264697066735822122014342a403a3c0e7b20236f2bb494538e52fc95622b80a6f8d0fba7f26c12e1f064736f6c634300081f0033\n}\n",
				"bytecode": {
					"linkReferences": {},
					"object": "608060405260055f553480156012575f5ffd5b5060f08061001f5f395ff3fe608060405260043610602f575f3560e01c8063098de8201460335780633ccfd60b146057578063b60d4288146065575b5f5ffd5b348015603d575f5ffd5b5060455f5481565b60405190815260200160405180910390f35b3480156061575f5ffd5b505b005b6063606d565b565b5f54341015606b5760405162461bcd60e51b81526020600482015260166024820152750c8d2c8dc4ee840e6cadcc840cadcdeeaced0408aa8960531b604482015260640160405180910390fdfea264697066735822122014342a403a3c0e7b20236f2bb494538e52fc95622b80a6f8d0fba7f26c12e1f064736f6c634300081f0033",
					"opcodes": "PUSH1 0x80 PUSH1 0x40 MSTORE PUSH1 0x5 PUSH0 SSTORE CALLVALUE DUP1 ISZERO PUSH1 0x12 JUMPI PUSH0 PUSH0 REVERT JUMPDEST POP PUSH1 0xF0 DUP1 PUSH2 0x1F PUSH0 CODECOPY PUSH0 RETURN INVALID PUSH1 0x80 PUSH1 0x40 MSTORE PUSH1 0x4 CALLDATASIZE LT PUSH1 0x2F JUMPI PUSH0 CALLDATALOAD PUSH1 0xE0 SHR DUP1 PUSH4 0x98DE820 EQ PUSH1 0x33 JUMPI DUP1 PUSH4 0x3CCFD60B EQ PUSH1 0x57 JUMPI DUP1 PUSH4 0xB60D4288 EQ PUSH1 0x65 JUMPI JUMPDEST PUSH0 PUSH0 REVERT JUMPDEST CALLVALUE DUP1 ISZERO PUSH1 0x3D JUMPI PUSH0 PUSH0 REVERT JUMPDEST POP PUSH1 0x45 PUSH0 SLOAD DUP2 JUMP JUMPDEST PUSH1 0x40 MLOAD SWAP1 DUP2 MSTORE PUSH1 0x20 ADD PUSH1 0x40 MLOAD DUP1 SWAP2 SUB SWAP1 RETURN JUMPDEST CALLVALUE DUP1 ISZERO PUSH1 0x61 JUMPI PUSH0 PUSH0 REVERT JUMPDEST POP JUMPDEST STOP JUMPDEST PUSH1 0x63 PUSH1 0x6D JUMP JUMPDEST JUMP JUMPDEST PUSH0 SLOAD CALLVALUE LT ISZERO PUSH1 0x6B JUMPI PUSH1 0x40 MLOAD PUSH3 0x461BCD PUSH1 0xE5 SHL DUP2 MSTORE PUSH1 0x20 PUSH1 0x4 DUP3 ADD MSTORE PUSH1 0x16 PUSH1 0x24 DUP3 ADD MSTORE PUSH22 0xC8D2C8DC4EE840E6CADCC840CADCDEEACED0408AA89 PUSH1 0x53 SHL PUSH1 0x44 DUP3 ADD MSTORE PUSH1 0x64 ADD PUSH1 0x40 MLOAD DUP1 SWAP2 SUB SWAP1 REVERT INVALID LOG2 PUSH5 0x6970667358 0x22 SLT KECCAK256 EQ CALLVALUE 0x2A BLOCKHASH GASPRICE EXTCODECOPY 0xE PUSH28 0x20236F2BB494538E52FC95622B80A6F8D0FBA7F26C12E1F064736F6C PUSH4 0x4300081F STOP CALLER "
				},
				"gasEstimates": {
					"creation": {
						"codeDepositCost": "48000",
						"executionCost": "22202",
						"totalCost": "70202"
					},
					"external": {
						"fund()": "2366",
						"minimumUsd()": "2259",
						"withdraw()": "120"
					}
				},
				"methodIdentifiers": {
					"fund()": "b60d4288",
					"minimumUsd()": "098de820",
					"withdraw()": "3ccfd60b"
				}
			},
			"storageLayout": {
				"storage": [
					{
						"astId": 4,
						"contract": "contracts/Fundme.sol:FundMe",
						"label": "minimumUsd",
						"offset": 0,
						"slot": "0",
						"type": "t_uint256"
					}
				],
				"types": {
					"t_uint256": {
						"encoding": "inplace",
						"label": "uint256",
						"numberOfBytes": "32"
					}
				}
			},
			"userdoc": {
				"kind": "user",
				"methods": {},
				"version": 1
			}
		}
	}
}