{
	"contracts/Fundme.sol": {
		"FundMe": {
			"abi": [
				{
					"inputs": [],
					"name": "fund",
					"outputs": [],
					"stateMutability": "payable",
					"type": "function"
				},
				{
					"inputs": [],
					"name": "getConversionRate",
					"outputs": [],
					"stateMutability": "nonpayable",
					"type": "function"
				},
				{
					"inputs": [],
					"name": "getPrice",
					"outputs": [],
					"stateMutability": "nonpayable",
					"type": "function"
				},
				{
					"inputs": [],
					"name": "getVersion",
					"outputs": [
						{
							"internalType": "uint256",
							"name": "",
							"type": "uint256"
						}
					],
					"stateMutability": "view",
					"type": "function"
				},
				{
					"inputs": [],
					"name": "minimumUsd",
					"outputs": [
						{
							"internalType": "uint256",
							"name": "",
							"type": "uint256"
						}
					],
					"stateMutability": "view",
					"type": "function"
				},
				{
					"inputs": [],
					"name": "withdraw",
					"outputs": [],
					"stateMutability": "nonpayable",
					"type": "function"
				}
			],
			"devdoc": {
				"kind": "dev",
				"methods": {},
				"version": 1
			},
			"evm": {
				"assembly": "    /* \"contracts/Fundme.sol\":670:1339  contract FundMe{... */\n  mstore(0x40, 0x80)\n    /* \"contracts/Fundme.sol\":718:719  5 */\n  0x05\n    /* \"contracts/Fundme.sol\":690:719  uint256 public minimumUsd = 5 */\n  0x00\n  sstore\n    /* \"contracts/Fundme.sol\":670:1339  contract FundMe{... */\n  callvalue\n  dup1\n  iszero\n  tag_1\n  jumpi\n  revert(0x00, 0x00)\ntag_1:\n  pop\n  dataSize(sub_0)\n  dup1\n  dataOffset(sub_0)\n  0x00\n  codecopy\n  0x00\n  return\nstop\n\nsub_0: assembly {\n        /* \"contracts/Fundme.sol\":670:1339  contract FundMe{... */\n      mstore(0x40, 0x80)\n      jumpi(tag_1, lt(calldatasize, 0x04))\n      shr(0xe0, calldataload(0x00))\n      dup1\n      0x098de820\n      eq\n      tag_2\n      jumpi\n      dup1\n      0x0d8e6e2c\n      eq\n      tag_3\n      jumpi\n      dup1\n      0x3ccfd60b\n      eq\n      tag_4\n      jumpi\n      dup1\n      0x98d5fdca\n      eq\n      tag_4\n      jumpi\n      dup1\n      0xb60d4288\n      eq\n      tag_6\n      jumpi\n      dup1\n      0xf36089ec\n      eq\n      tag_4\n      jumpi\n    tag_1:\n      revert(0x00, 0x00)\n        /* \"contracts/Fundme.sol\":690:719  uint256 public minimumUsd = 5 */\n    tag_2:\n      callvalue\n      dup1\n      iszero\n      tag_8\n      jumpi\n      revert(0x00, 0x00)\n    tag_8:\n      pop\n      tag_9\n      sload(0x00)\n      dup2\n      jump\n    tag_9:\n      mload(0x40)\n        /* \"#utility.yul\":160:185   */\n      swap1\n      dup2\n      mstore\n        /* \"#utility.yul\":148:150   */\n      0x20\n        /* \"#utility.yul\":133:151   */\n      add\n        /* \"contracts/Fundme.sol\":690:719  uint256 public minimumUsd = 5 */\n      mload(0x40)\n      dup1\n      swap2\n      sub\n      swap1\n      return\n        /* \"contracts/Fundme.sol\":1180:1336  function getVersion() public view returns(uint256){... */\n    tag_3:\n      callvalue\n      dup1\n      iszero\n      tag_13\n      jumpi\n      revert(0x00, 0x00)\n    tag_13:\n      pop\n      tag_9\n      tag_15\n      jump\t// in\n        /* \"contracts/Fundme.sol\":975:1015  function withdraw() public... */\n    tag_4:\n      callvalue\n      dup1\n      iszero\n      tag_17\n      jumpi\n      revert(0x00, 0x00)\n    tag_17:\n      pop\n    tag_18:\n      stop\n        /* \"contracts/Fundme.sol\":728:967  function fund() public payable {... */\n    tag_6:\n      tag_18\n      tag_24\n      jump\t// in\n        /* \"contracts/Fundme.sol\":1180:1336  function getVersion() public view returns(uint256){... */\n    tag_15:\n        /* \"contracts/Fundme.sol\":1222:1229  uint256 */\n      0x00\n        /* \"contracts/Fundme.sol\":1270:1312  0x694AA1769357215DE4FAC081bf1f309aDC325306 */\n      0x694aa1769357215de4fac081bf1f309adc325306\n      sub(shl(0xa0, 0x01), 0x01)\n        /* \"contracts/Fundme.sol\":1248:1321  AggregatorV3Interface(0x694AA1769357215DE4FAC081bf1f309aDC325306).version */\n      and\n      0x54fd4d50\n        /* \"contracts/Fundme.sol\":1248:1323  AggregatorV3Interface(0x694AA1769357215DE4FAC081bf1f309aDC325306).version() */\n      mload(0x40)\n      dup2\n      0xffffffff\n      and\n      0xe0\n      shl\n      dup2\n      mstore\n      0x04\n      add\n      0x20\n      mload(0x40)\n      dup1\n      dup4\n      sub\n      dup2\n      dup7\n      gas\n      staticcall\n      iszero\n      dup1\n      iszero\n      tag_30\n      jumpi\n      returndatacopy(0x00, 0x00, returndatasize)\n      revert(0x00, returndatasize)\n    tag_30:\n      pop\n      pop\n      pop\n      pop\n      mload(0x40)\n      returndatasize\n      not(0x1f)\n      0x1f\n      dup3\n      add\n      and\n      dup3\n      add\n      dup1\n      0x40\n      mstore\n      pop\n      dup2\n      add\n      swap1\n      tag_31\n      swap2\n      swap1\n      tag_32\n      jump\t// in\n    tag_31:\n        /* \"contracts/Fundme.sol\":1241:1323  return AggregatorV3Interface(0x694AA1769357215DE4FAC081bf1f309aDC325306).version() */\n      swap1\n      pop\n        /* \"contracts/Fundme.sol\":1180:1336  function getVersion() public view returns(uint256){... */\n      swap1\n      jump\t// out\n        /* \"contracts/Fundme.sol\":975:1015  function withdraw() public... */\n    tag_19:\n      jump\t// out\n        /* \"contracts/Fundme.sol\":728:967  function fund() public payable {... */\n    tag_24:\n        /* \"contracts/Fundme.sol\":922:932  minimumUsd */\n      sload(0x00)\n        /* \"contracts/Fundme.sol\":909:918  msg.value */\n      callvalue\n        /* \"contracts/Fundme.sol\":909:932  msg.value >= minimumUsd */\n      lt\n      iszero\n        /* \"contracts/Fundme.sol\":901:959  require(msg.value >= minimumUsd, \"didn't send enough ETH\") */\n      tag_19\n      jumpi\n      mload(0x40)\n      shl(0xe5, 0x461bcd)\n      dup2\n      mstore\n        /* \"#utility.yul\":587:589   */\n      0x20\n        /* \"contracts/Fundme.sol\":901:959  require(msg.value >= minimumUsd, \"didn't send enough ETH\") */\n      0x04\n      dup3\n      add\n        /* \"#utility.yul\":569:590   */\n      mstore\n        /* \"#utility.yul\":626:628   */\n      0x16\n        /* \"#utility.yul\":606:624   */\n      0x24\n      dup3\n      add\n        /* \"#utility.yul\":599:629   */\n      mstore\n      shl(0x53, 0x0c8d2c8dc4ee840e6cadcc840cadcdeeaced0408aa89)\n        /* \"#utility.yul\":645:663   */\n      0x44\n      dup3\n      add\n        /* \"#utility.yul\":638:690   */\n      mstore\n        /* \"#utility.yul\":707:725   */\n      0x64\n      add\n        /* \"contracts/Fundme.sol\":901:959  require(msg.value >= minimumUsd, \"didn't send enough ETH\") */\n      mload(0x40)\n      dup1\n      swap2\n      sub\n      swap1\n      revert\n        /* \"#utility.yul\":196:380   */\n    tag_32:\n        /* \"#utility.yul\":266:272   */\n      0x00\n        /* \"#utility.yul\":319:321   */\n      0x20\n        /* \"#utility.yul\":307:316   */\n      dup3\n        /* \"#utility.yul\":298:305   */\n      dup5\n        /* \"#utility.yul\":294:317   */\n      sub\n        /* \"#utility.yul\":290:322   */\n      slt\n        /* \"#utility.yul\":287:339   */\n      iszero\n      tag_43\n      jumpi\n        /* \"#utility.yul\":335:336   */\n      0x00\n        /* \"#utility.yul\":332:333   */\n      0x00\n        /* \"#utility.yul\":325:337   */\n      revert\n        /* \"#utility.yul\":287:339   */\n    tag_43:\n      pop\n        /* \"#utility.yul\":358:374   */\n      mload\n      swap2\n        /* \"#utility.yul\":196:380   */\n      swap1\n      pop\n      jump\t// out\n\n    auxdata: 0xa26469706673582212200d6bacdeff0ff26c7a08abdf0d5c5b19e65ddf1417481539d089444ac6dd633964736f6c634300081f0033\n}\n",
				"bytecode": {
					"linkReferences": {},
					"object": "608060405260055f553480156012575f5ffd5b506101c0806100205f395ff3fe608060405260043610610054575f3560e01c8063098de820146100585780630d8e6e2c1461007e5780633ccfd60b1461009257806398d5fdca14610092578063b60d4288146100a1578063f36089ec14610092575b5f5ffd5b348015610063575f5ffd5b5061006c5f5481565b60405190815260200160405180910390f35b348015610089575f5ffd5b5061006c6100a9565b34801561009d575f5ffd5b505b005b61009f610125565b5f73694aa1769357215de4fac081bf1f309adc3253066001600160a01b03166354fd4d506040518163ffffffff1660e01b8152600401602060405180830381865afa1580156100fa573d5f5f3e3d5ffd5b505050506040513d601f19601f8201168201806040525081019061011e9190610173565b905090565b565b5f543410156101235760405162461bcd60e51b81526020600482015260166024820152750c8d2c8dc4ee840e6cadcc840cadcdeeaced0408aa8960531b604482015260640160405180910390fd5b5f60208284031215610183575f5ffd5b505191905056fea26469706673582212200d6bacdeff0ff26c7a08abdf0d5c5b19e65ddf1417481539d089444ac6dd633964736f6c634300081f0033",
					"opcodes": "PUSH1 0x80 PUSH1 0x40 MSTORE PUSH1 0x5 PUSH0 SSTORE CALLVALUE DUP1 ISZERO PUSH1 0x12 JUMPI PUSH0 PUSH0 REVERT JUMPDEST POP PUSH2 0x1C0 DUP1 PUSH2 0x20 PUSH0 CODECOPY PUSH0 RETURN INVALID PUSH1 0x80 PUSH1 0x40 MSTORE PUSH1 0x4 CALLDATASIZE LT PUSH2 0x54 JUMPI PUSH0 CALLDATALOAD PUSH1 0xE0 SHR DUP1 PUSH4 0x98DE820 EQ PUSH2 0x58 JUMPI DUP1 PUSH4 0xD8E6E2C EQ PUSH2 0x7E JUMPI DUP1 PUSH4 0x3CCFD60B EQ PUSH2 0x92 JUMPI DUP1 PUSH4 0x98D5FDCA EQ PUSH2 0x92 JUMPI DUP1 PUSH4 0xB60D4288 EQ PUSH2 0xA1 JUMPI DUP1 PUSH4 0xF36089EC EQ PUSH2 0x92 JUMPI JUMPDEST PUSH0 PUSH0 REVERT JUMPDEST CALLVALUE DUP1 ISZERO PUSH2 0x63 JUMPI PUSH0 PUSH0 REVERT JUMPDEST POP PUSH2 0x6C PUSH0 SLOAD DUP2 JUMP JUMPDEST PUSH1 0x40 MLOAD SWAP1 DUP2 MSTORE PUSH1 0x20 ADD PUSH1 0x40 MLOAD DUP1 SWAP2 SUB SWAP1 RETURN JUMPDEST CALLVALUE DUP1 ISZERO PUSH2 0x89 JUMPI PUSH0 PUSH0 REVERT JUMPDEST POP PUSH2 0x6C PUSH2 0xA9 JUMP JUMPDEST CALLVALUE DUP1 ISZERO PUSH2 0x9D JUMPI PUSH0 PUSH0 REVERT JUMPDEST POP JUMPDEST STOP JUMPDEST PUSH2 0x9F PUSH2 0x125 JUMP JUMPDEST PUSH0 PUSH20 0x694AA1769357215DE4FAC081BF1F309ADC325306 PUSH1 0x1 PUSH1 0x1 PUSH1 0xA0 SHL SUB AND PUSH4 0x54FD4D50 PUSH1 0x40 MLOAD DUP2 PUSH4 0xFFFFFFFF AND PUSH1 0xE0 SHL DUP2 MSTORE PUSH1 0x4 ADD PUSH1 0x20 PUSH1 0x40 MLOAD DUP1 DUP4 SUB DUP2 DUP7 GAS STATICCALL ISZERO DUP1 ISZERO PUSH2 0xFA JUMPI RETURNDATASIZE PUSH0 PUSH0 RETURNDATACOPY RETURNDATASIZE PUSH0 REVERT JUMPDEST POP POP POP POP PUSH1 0x40 MLOAD RETURNDATASIZE PUSH1 0x1F NOT PUSH1 0x1F DUP3 ADD AND DUP3 ADD DUP1 PUSH1 0x40 MSTORE POP DUP2 ADD SWAP1 PUSH2 0x11E SWAP2 SWAP1 PUSH2 0x173 JUMP JUMPDEST SWAP1 POP SWAP1 JUMP JUMPDEST JUMP JUMPDEST PUSH0 SLOAD CALLVALUE LT ISZERO PUSH2 0x123 JUMPI PUSH1 0x40 MLOAD PUSH3 0x461BCD PUSH1 0xE5 SHL DUP2 MSTORE PUSH1 0x20 PUSH1 0x4 DUP3 ADD MSTORE PUSH1 0x16 PUSH1 0x24 DUP3 ADD MSTORE PUSH22 0xC8D2C8DC4EE840E6CADCC840CADCDEEACED0408AA89 PUSH1 0x53 SHL PUSH1 0x44 DUP3 ADD MSTORE PUSH1 0x64 ADD PUSH1 0x40 MLOAD DUP1 SWAP2 SUB SWAP1 REVERT JUMPDEST PUSH0 PUSH1 0x20 DUP3 DUP5 SUB SLT ISZERO PUSH2 0x183 JUMPI PUSH0 PUSH0 REVERT JUMPDEST POP MLOAD SWAP2 SWAP1 POP JUMP INVALID LOG2 PUSH5 0x6970667358 0x22 SLT KECCAK256 0xD PUSH12 0xACDEFF0FF26C7A08ABDF0D5C JUMPDEST NOT DUPN 0x5D 0xDF EQ OR BASEFEE ISZERO CODECOPY 0xD0 DUP10 PREVRANDAO BLOBBASEFEE 0xC6 0xDD PUSH4 0x3964736F PUSH13 0x634300081F0033000000000000 "
				},
				"gasEstimates": {
					"creation": {
						"codeDepositCost": "89600",
						"executionCost": "22238",
						"totalCost": "111838"
					},
					"external": {
						"fund()": "2410",
						"getConversionRate()": "208",
						"getPrice()": "164",
						"getVersion()": "infinite",
						"minimumUsd()": "2259",
						"withdraw()": "142"
					}
				},
				"methodIdentifiers": {
					"fund()": "b60d4288",
					"getConversionRate()": "f36089ec",
					"getPrice()": "98d5fdca",
					"getVersion()": "0d8e6e2c",
					"minimumUsd()": "098de820",
					"withdraw()": "3ccfd60b"
				}
			},
			"storageLayout": {
				"storage": [
					{
						"astId": 48,
						"contract": "contracts/Fundme.sol:FundMe",
						"label": "minimumUsd",
						"offset": 0,
						"slot": "0",
						"type": "t_uint256"
					}
				],
				"types": {
					"t_uint256": {
						"encoding": "inplace",
						"label": "uint256",
						"numberOfBytes": "32"
					}
				}
			},
			"userdoc": {
				"kind": "user",
				"methods": {},
				"version": 1
			}
		}
	}
}